{
  "_format": "hh-sol-artifact-1",
  "contractName": "BridgeEth",
  "sourceName": "contracts/BridgeEth.sol",
  "abi": [
    {
      "inputs": [],
      "stateMutability": "nonpayable",
      "type": "constructor"
    },
    {
      "anonymous": false,
      "inputs": [
        {
          "indexed": false,
          "internalType": "address",
          "name": "from",
          "type": "address"
        },
        {
          "indexed": false,
          "internalType": "uint256",
          "name": "amount",
          "type": "uint256"
        },
        {
          "indexed": false,
          "internalType": "address",
          "name": "tokenAddress",
          "type": "address"
        },
        {
          "indexed": false,
          "internalType": "uint256",
          "name": "balance",
          "type": "uint256"
        },
        {
          "indexed": false,
          "internalType": "uint256",
          "name": "nonce",
          "type": "uint256"
        },
        {
          "indexed": false,
          "internalType": "bytes",
          "name": "signature",
          "type": "bytes"
        }
      ],
      "name": "Burn",
      "type": "event"
    },
    {
      "anonymous": false,
      "inputs": [
        {
          "indexed": false,
          "internalType": "address",
          "name": "from",
          "type": "address"
        },
        {
          "indexed": false,
          "internalType": "uint256",
          "name": "amount",
          "type": "uint256"
        },
        {
          "indexed": false,
          "internalType": "string",
          "name": "name",
          "type": "string"
        },
        {
          "indexed": false,
          "internalType": "string",
          "name": "symbol",
          "type": "string"
        },
        {
          "indexed": false,
          "internalType": "address",
          "name": "token",
          "type": "address"
        }
      ],
      "name": "Mint",
      "type": "event"
    },
    {
      "anonymous": false,
      "inputs": [
        {
          "indexed": false,
          "internalType": "address",
          "name": "from",
          "type": "address"
        },
        {
          "indexed": false,
          "internalType": "address",
          "name": "to",
          "type": "address"
        },
        {
          "indexed": false,
          "internalType": "uint256",
          "name": "amount",
          "type": "uint256"
        },
        {
          "indexed": false,
          "internalType": "uint256",
          "name": "date",
          "type": "uint256"
        },
        {
          "indexed": false,
          "internalType": "uint256",
          "name": "nonce",
          "type": "uint256"
        },
        {
          "indexed": false,
          "internalType": "bytes",
          "name": "signature",
          "type": "bytes"
        },
        {
          "indexed": true,
          "internalType": "enum IBridge.Step",
          "name": "step",
          "type": "uint8"
        }
      ],
      "name": "Transfer",
      "type": "event"
    },
    {
      "inputs": [],
      "name": "admin",
      "outputs": [
        {
          "internalType": "address",
          "name": "",
          "type": "address"
        }
      ],
      "stateMutability": "view",
      "type": "function"
    },
    {
      "inputs": [
        {
          "internalType": "address",
          "name": "",
          "type": "address"
        }
      ],
      "name": "bscToEth",
      "outputs": [
        {
          "internalType": "address",
          "name": "",
          "type": "address"
        }
      ],
      "stateMutability": "view",
      "type": "function"
    },
    {
      "inputs": [
        {
          "internalType": "address",
          "name": "tokenAddr",
          "type": "address"
        },
        {
          "internalType": "uint256",
          "name": "amount",
          "type": "uint256"
        },
        {
          "internalType": "uint256",
          "name": "nonce",
          "type": "uint256"
        },
        {
          "internalType": "bytes",
          "name": "signature",
          "type": "bytes"
        }
      ],
      "name": "burn",
      "outputs": [],
      "stateMutability": "nonpayable",
      "type": "function"
    },
    {
      "inputs": [
        {
          "internalType": "address",
          "name": "",
          "type": "address"
        }
      ],
      "name": "ethToBsc",
      "outputs": [
        {
          "internalType": "address",
          "name": "",
          "type": "address"
        }
      ],
      "stateMutability": "view",
      "type": "function"
    },
    {
      "inputs": [
        {
          "internalType": "address",
          "name": "from",
          "type": "address"
        },
        {
          "internalType": "uint256",
          "name": "amount",
          "type": "uint256"
        },
        {
          "internalType": "uint256",
          "name": "nonce",
          "type": "uint256"
        }
      ],
      "name": "getMessageHash",
      "outputs": [
        {
          "internalType": "bytes32",
          "name": "",
          "type": "bytes32"
        }
      ],
      "stateMutability": "pure",
      "type": "function"
    },
    {
      "inputs": [
        {
          "internalType": "address",
          "name": "from",
          "type": "address"
        },
        {
          "internalType": "address",
          "name": "tokenAddress",
          "type": "address"
        },
        {
          "internalType": "string",
          "name": "name",
          "type": "string"
        },
        {
          "internalType": "string",
          "name": "symbol",
          "type": "string"
        },
        {
          "internalType": "uint256",
          "name": "amount",
          "type": "uint256"
        }
      ],
      "name": "mint",
      "outputs": [],
      "stateMutability": "nonpayable",
      "type": "function"
    },
    {
      "inputs": [
        {
          "internalType": "address",
          "name": "",
          "type": "address"
        },
        {
          "internalType": "uint256",
          "name": "",
          "type": "uint256"
        }
      ],
      "name": "processedNonces",
      "outputs": [
        {
          "internalType": "bool",
          "name": "",
          "type": "bool"
        }
      ],
      "stateMutability": "view",
      "type": "function"
    }
  ],
  "bytecode": "0x608060405234801561001057600080fd5b50336000806101000a81548173ffffffffffffffffffffffffffffffffffffffff021916908373ffffffffffffffffffffffffffffffffffffffff1602179055506136b3806100606000396000f3fe60806040523480156200001157600080fd5b50600436106200006a5760003560e01c80637cc70240146200006f5780638a94b05f14620000a5578063d2b0737b14620000c5578063e486033914620000fb578063f6ea591d1462000131578063f851a4401462000151575b600080fd5b6200008d600480360381019062000087919062000bdb565b62000173565b6040516200009c919062000c3f565b60405180910390f35b620000c36004803603810190620000bd919062000cca565b620001a2565b005b620000e36004803603810190620000dd919062000d60565b620003d9565b604051620000f2919062000dd7565b60405180910390f35b62000119600480360381019062000113919062000df4565b62000411565b60405162000128919062000e37565b60405180910390f35b6200014f600480360381019062000149919062000fb1565b62000444565b005b6200015b62000a05565b6040516200016a919062000e37565b60405180910390f35b60016020528160005260406000206020528060005260406000206000915091509054906101000a900460ff1681565b60008054906101000a900473ffffffffffffffffffffffffffffffffffffffff1673ffffffffffffffffffffffffffffffffffffffff163373ffffffffffffffffffffffffffffffffffffffff161462000233576040517f08c379a00000000000000000000000000000000000000000000000000000000081526004016200022a9062001126565b60405180910390fd5b60008590508073ffffffffffffffffffffffffffffffffffffffff16639dc29fac33876040518363ffffffff1660e01b81526004016200027592919062001159565b600060405180830381600087803b1580156200029057600080fd5b505af1158015620002a5573d6000803e3d6000fd5b5050505060008690507fd8fb41fcfeaa7208943102367ea1f379ecbe952742fb1d14100d3423ffa9cf153387600260008673ffffffffffffffffffffffffffffffffffffffff1673ffffffffffffffffffffffffffffffffffffffff16815260200190815260200160002060009054906101000a900473ffffffffffffffffffffffffffffffffffffffff168473ffffffffffffffffffffffffffffffffffffffff166370a08231336040518263ffffffff1660e01b81526004016200036c919062000e37565b602060405180830381865afa1580156200038a573d6000803e3d6000fd5b505050506040513d601f19601f82011682018060405250810190620003b091906200119d565b898989604051620003c8979695949392919062001213565b60405180910390a150505050505050565b6000838383604051602001620003f293929190620012fe565b6040516020818303038152906040528051906020012090509392505050565b60026020528060005260406000206000915054906101000a900473ffffffffffffffffffffffffffffffffffffffff1681565b60008054906101000a900473ffffffffffffffffffffffffffffffffffffffff1673ffffffffffffffffffffffffffffffffffffffff163373ffffffffffffffffffffffffffffffffffffffff1614620004d5576040517f08c379a0000000000000000000000000000000000000000000000000000000008152600401620004cc9062001126565b60405180910390fd5b60006200050e898686604051602001620004f293929190620012fe565b6040516020818303038152906040528051906020012062000a29565b90508873ffffffffffffffffffffffffffffffffffffffff16620005778285858080601f016020809104026020016040519081016040528093929190818152602001838380828437600081840152601f19601f8201169050808301925050505050505062000a5b565b73ffffffffffffffffffffffffffffffffffffffff1614620005d0576040517f08c379a0000000000000000000000000000000000000000000000000000000008152600401620005c79062001391565b60405180910390fd5b600073ffffffffffffffffffffffffffffffffffffffff16600260008a73ffffffffffffffffffffffffffffffffffffffff1673ffffffffffffffffffffffffffffffffffffffff16815260200190815260200160002060009054906101000a900473ffffffffffffffffffffffffffffffffffffffff1673ffffffffffffffffffffffffffffffffffffffff16036200085e5760008787604051620006769062000b19565b620006839291906200142b565b604051809103906000f080158015620006a0573d6000803e3d6000fd5b50905080600260008b73ffffffffffffffffffffffffffffffffffffffff1673ffffffffffffffffffffffffffffffffffffffff16815260200190815260200160002060006101000a81548173ffffffffffffffffffffffffffffffffffffffff021916908373ffffffffffffffffffffffffffffffffffffffff1602179055508073ffffffffffffffffffffffffffffffffffffffff166340c10f1933886040518363ffffffff1660e01b81526004016200075e92919062001159565b600060405180830381600087803b1580156200077957600080fd5b505af11580156200078e573d6000803e3d6000fd5b505050507f1fa3f74eb76ec04fa4048f7d8fbd11ad8c63509a129b786b41d10a800e461a78338273ffffffffffffffffffffffffffffffffffffffff166370a08231336040518263ffffffff1660e01b8152600401620007ef919062000e37565b602060405180830381865afa1580156200080d573d6000803e3d6000fd5b505050506040513d601f19601f820116820180604052508101906200083391906200119d565b8a8a858a8a8a6040516200084f98979695949392919062001466565b60405180910390a150620009fa565b6000600260008a73ffffffffffffffffffffffffffffffffffffffff1673ffffffffffffffffffffffffffffffffffffffff16815260200190815260200160002060009054906101000a900473ffffffffffffffffffffffffffffffffffffffff1690508073ffffffffffffffffffffffffffffffffffffffff166340c10f1933886040518363ffffffff1660e01b8152600401620008ff92919062001159565b600060405180830381600087803b1580156200091a57600080fd5b505af11580156200092f573d6000803e3d6000fd5b505050507f1fa3f74eb76ec04fa4048f7d8fbd11ad8c63509a129b786b41d10a800e461a78338273ffffffffffffffffffffffffffffffffffffffff166370a08231336040518263ffffffff1660e01b815260040162000990919062000e37565b602060405180830381865afa158015620009ae573d6000803e3d6000fd5b505050506040513d601f19601f82011682018060405250810190620009d491906200119d565b8a8a858a8a8a604051620009f098979695949392919062001466565b60405180910390a1505b505050505050505050565b60008054906101000a900473ffffffffffffffffffffffffffffffffffffffff1681565b60008160405160200162000a3e91906200157a565b604051602081830303815290604052805190602001209050919050565b60008060008062000a6c8562000ad5565b8093508194508295505050506001868484846040516000815260200160405260405162000a9d9493929190620015c2565b6020604051602081039080840390855afa15801562000ac0573d6000803e3d6000fd5b50505060206040510351935050505092915050565b6000806000604184511462000ae957600080fd5b60008060006020870151925060408701519150606087015160001a90508083839550955095505050509193909250565b61206e806200161083390190565b6000604051905090565b600080fd5b600080fd5b600073ffffffffffffffffffffffffffffffffffffffff82169050919050565b600062000b688262000b3b565b9050919050565b62000b7a8162000b5b565b811462000b8657600080fd5b50565b60008135905062000b9a8162000b6f565b92915050565b6000819050919050565b62000bb58162000ba0565b811462000bc157600080fd5b50565b60008135905062000bd58162000baa565b92915050565b6000806040838503121562000bf55762000bf462000b31565b5b600062000c058582860162000b89565b925050602062000c188582860162000bc4565b9150509250929050565b60008115159050919050565b62000c398162000c22565b82525050565b600060208201905062000c56600083018462000c2e565b92915050565b600080fd5b600080fd5b600080fd5b60008083601f84011262000c845762000c8362000c5c565b5b8235905067ffffffffffffffff81111562000ca45762000ca362000c61565b5b60208301915083600182028301111562000cc35762000cc262000c66565b5b9250929050565b60008060008060006080868803121562000ce95762000ce862000b31565b5b600062000cf98882890162000b89565b955050602062000d0c8882890162000bc4565b945050604062000d1f8882890162000bc4565b935050606086013567ffffffffffffffff81111562000d435762000d4262000b36565b5b62000d518882890162000c6b565b92509250509295509295909350565b60008060006060848603121562000d7c5762000d7b62000b31565b5b600062000d8c8682870162000b89565b935050602062000d9f8682870162000bc4565b925050604062000db28682870162000bc4565b9150509250925092565b6000819050919050565b62000dd18162000dbc565b82525050565b600060208201905062000dee600083018462000dc6565b92915050565b60006020828403121562000e0d5762000e0c62000b31565b5b600062000e1d8482850162000b89565b91505092915050565b62000e318162000b5b565b82525050565b600060208201905062000e4e600083018462000e26565b92915050565b600080fd5b6000601f19601f8301169050919050565b7f4e487b7100000000000000000000000000000000000000000000000000000000600052604160045260246000fd5b62000ea48262000e59565b810181811067ffffffffffffffff8211171562000ec65762000ec562000e6a565b5b80604052505050565b600062000edb62000b27565b905062000ee9828262000e99565b919050565b600067ffffffffffffffff82111562000f0c5762000f0b62000e6a565b5b62000f178262000e59565b9050602081019050919050565b82818337600083830152505050565b600062000f4a62000f448462000eee565b62000ecf565b90508281526020810184848401111562000f695762000f6862000e54565b5b62000f7684828562000f24565b509392505050565b600082601f83011262000f965762000f9562000c5c565b5b813562000fa884826020860162000f33565b91505092915050565b60008060008060008060008060e0898b03121562000fd45762000fd362000b31565b5b600062000fe48b828c0162000b89565b985050602062000ff78b828c0162000b89565b975050604089013567ffffffffffffffff8111156200101b576200101a62000b36565b5b620010298b828c0162000f7e565b965050606089013567ffffffffffffffff8111156200104d576200104c62000b36565b5b6200105b8b828c0162000f7e565b95505060806200106e8b828c0162000bc4565b94505060a0620010818b828c0162000bc4565b93505060c089013567ffffffffffffffff811115620010a557620010a462000b36565b5b620010b38b828c0162000c6b565b92509250509295985092959890939650565b600082825260208201905092915050565b7f6f6e6c7920616c6c6f7765642062792061646d696e0000000000000000000000600082015250565b60006200110e601583620010c5565b91506200111b82620010d6565b602082019050919050565b600060208201905081810360008301526200114181620010ff565b9050919050565b620011538162000ba0565b82525050565b600060408201905062001170600083018562000e26565b6200117f602083018462001148565b9392505050565b600081519050620011978162000baa565b92915050565b600060208284031215620011b657620011b562000b31565b5b6000620011c68482850162001186565b91505092915050565b600082825260208201905092915050565b6000620011ee8385620011cf565b9350620011fd83858462000f24565b620012088362000e59565b840190509392505050565b600060c0820190506200122a600083018a62000e26565b62001239602083018962001148565b62001248604083018862000e26565b62001257606083018762001148565b62001266608083018662001148565b81810360a08301526200127b818486620011e0565b905098975050505050505050565b60008160601b9050919050565b6000620012a38262001289565b9050919050565b6000620012b78262001296565b9050919050565b620012d3620012cd8262000b5b565b620012aa565b82525050565b6000819050919050565b620012f8620012f28262000ba0565b620012d9565b82525050565b60006200130c8286620012be565b6014820191506200131e8285620012e3565b602082019150620013308284620012e3565b602082019150819050949350505050565b7f77726f6e67207369676e61747572650000000000000000000000000000000000600082015250565b600062001379600f83620010c5565b9150620013868262001341565b602082019050919050565b60006020820190508181036000830152620013ac816200136a565b9050919050565b600081519050919050565b60005b83811015620013de578082015181840152602081019050620013c1565b60008484015250505050565b6000620013f782620013b3565b620014038185620010c5565b935062001415818560208601620013be565b620014208162000e59565b840191505092915050565b60006040820190508181036000830152620014478185620013ea565b905081810360208301526200145d8184620013ea565b90509392505050565b600060e0820190506200147d600083018b62000e26565b6200148c602083018a62001148565b8181036040830152620014a08189620013ea565b90508181036060830152620014b68188620013ea565b9050620014c7608083018762000e26565b620014d660a083018662001148565b81810360c0830152620014eb818486620011e0565b90509998505050505050505050565b600081905092915050565b7f19457468657265756d205369676e6564204d6573736167653a0a333200000000600082015250565b60006200153d601c83620014fa565b91506200154a8262001505565b601c82019050919050565b6000819050919050565b620015746200156e8262000dbc565b62001555565b82525050565b600062001587826200152e565b91506200159582846200155f565b60208201915081905092915050565b600060ff82169050919050565b620015bc81620015a4565b82525050565b6000608082019050620015d9600083018762000dc6565b620015e86020830186620015b1565b620015f7604083018562000dc6565b62001606606083018462000dc6565b9594505050505056fe60806040523480156200001157600080fd5b506040516200206e3803806200206e83398181016040528101906200003791906200023b565b818181600390816200004a91906200050b565b5080600490816200005c91906200050b565b50505033600560006101000a81548173ffffffffffffffffffffffffffffffffffffffff021916908373ffffffffffffffffffffffffffffffffffffffff1602179055505050620005f2565b6000604051905090565b600080fd5b600080fd5b600080fd5b600080fd5b6000601f19601f8301169050919050565b7f4e487b7100000000000000000000000000000000000000000000000000000000600052604160045260246000fd5b6200011182620000c6565b810181811067ffffffffffffffff82111715620001335762000132620000d7565b5b80604052505050565b600062000148620000a8565b905062000156828262000106565b919050565b600067ffffffffffffffff821115620001795762000178620000d7565b5b6200018482620000c6565b9050602081019050919050565b60005b83811015620001b157808201518184015260208101905062000194565b60008484015250505050565b6000620001d4620001ce846200015b565b6200013c565b905082815260208101848484011115620001f357620001f2620000c1565b5b6200020084828562000191565b509392505050565b600082601f83011262000220576200021f620000bc565b5b815162000232848260208601620001bd565b91505092915050565b60008060408385031215620002555762000254620000b2565b5b600083015167ffffffffffffffff811115620002765762000275620000b7565b5b620002848582860162000208565b925050602083015167ffffffffffffffff811115620002a857620002a7620000b7565b5b620002b68582860162000208565b9150509250929050565b600081519050919050565b7f4e487b7100000000000000000000000000000000000000000000000000000000600052602260045260246000fd5b600060028204905060018216806200031357607f821691505b602082108103620003295762000328620002cb565b5b50919050565b60008190508160005260206000209050919050565b60006020601f8301049050919050565b600082821b905092915050565b600060088302620003937fffffffffffffffffffffffffffffffffffffffffffffffffffffffffffffffff8262000354565b6200039f868362000354565b95508019841693508086168417925050509392505050565b6000819050919050565b6000819050919050565b6000620003ec620003e6620003e084620003b7565b620003c1565b620003b7565b9050919050565b6000819050919050565b6200040883620003cb565b620004206200041782620003f3565b84845462000361565b825550505050565b600090565b6200043762000428565b62000444818484620003fd565b505050565b5b818110156200046c57620004606000826200042d565b6001810190506200044a565b5050565b601f821115620004bb5762000485816200032f565b620004908462000344565b81016020851015620004a0578190505b620004b8620004af8562000344565b83018262000449565b50505b505050565b600082821c905092915050565b6000620004e060001984600802620004c0565b1980831691505092915050565b6000620004fb8383620004cd565b9150826002028217905092915050565b6200051682620002c0565b67ffffffffffffffff811115620005325762000531620000d7565b5b6200053e8254620002fa565b6200054b82828562000470565b600060209050601f8311600181146200058357600084156200056e578287015190505b6200057a8582620004ed565b865550620005ea565b601f19841662000593866200032f565b60005b82811015620005bd5784890151825560018201915060208501945060208101905062000596565b86831015620005dd5784890151620005d9601f891682620004cd565b8355505b6001600288020188555050505b505050505050565b611a6c80620006026000396000f3fe608060405234801561001057600080fd5b50600436106100f55760003560e01c806370a0823111610097578063a9059cbb11610066578063a9059cbb1461029a578063dd62ed3e146102ca578063e2f273bd146102fa578063f851a44014610316576100f5565b806370a082311461020057806395d89b41146102305780639dc29fac1461024e578063a457c2d71461026a576100f5565b806323b872dd116100d357806323b872dd14610166578063313ce5671461019657806339509351146101b457806340c10f19146101e4576100f5565b806306fdde03146100fa578063095ea7b31461011857806318160ddd14610148575b600080fd5b610102610334565b60405161010f9190611123565b60405180910390f35b610132600480360381019061012d91906111de565b6103c6565b60405161013f9190611239565b60405180910390f35b6101506103e9565b60405161015d9190611263565b60405180910390f35b610180600480360381019061017b919061127e565b6103f3565b60405161018d9190611239565b60405180910390f35b61019e610422565b6040516101ab91906112ed565b60405180910390f35b6101ce60048036038101906101c991906111de565b61042b565b6040516101db9190611239565b60405180910390f35b6101fe60048036038101906101f991906111de565b610462565b005b61021a60048036038101906102159190611308565b610500565b6040516102279190611263565b60405180910390f35b610238610548565b6040516102459190611123565b60405180910390f35b610268600480360381019061026391906111de565b6105da565b005b610284600480360381019061027f91906111de565b610678565b6040516102919190611239565b60405180910390f35b6102b460048036038101906102af91906111de565b6106ef565b6040516102c19190611239565b60405180910390f35b6102e460048036038101906102df9190611335565b610712565b6040516102f19190611263565b60405180910390f35b610314600480360381019061030f9190611308565b610799565b005b61031e61086d565b60405161032b9190611384565b60405180910390f35b606060038054610343906113ce565b80601f016020809104026020016040519081016040528092919081815260200182805461036f906113ce565b80156103bc5780601f10610391576101008083540402835291602001916103bc565b820191906000526020600020905b81548152906001019060200180831161039f57829003601f168201915b5050505050905090565b6000806103d1610893565b90506103de81858561089b565b600191505092915050565b6000600254905090565b6000806103fe610893565b905061040b858285610a64565b610416858585610af0565b60019150509392505050565b60006012905090565b600080610436610893565b90506104578185856104488589610712565b610452919061142e565b61089b565b600191505092915050565b600560009054906101000a900473ffffffffffffffffffffffffffffffffffffffff1673ffffffffffffffffffffffffffffffffffffffff163373ffffffffffffffffffffffffffffffffffffffff16146104f2576040517f08c379a00000000000000000000000000000000000000000000000000000000081526004016104e9906114ae565b60405180910390fd5b6104fc8282610d66565b5050565b60008060008373ffffffffffffffffffffffffffffffffffffffff1673ffffffffffffffffffffffffffffffffffffffff168152602001908152602001600020549050919050565b606060048054610557906113ce565b80601f0160208091040260200160405190810160405280929190818152602001828054610583906113ce565b80156105d05780601f106105a5576101008083540402835291602001916105d0565b820191906000526020600020905b8154815290600101906020018083116105b357829003601f168201915b5050505050905090565b600560009054906101000a900473ffffffffffffffffffffffffffffffffffffffff1673ffffffffffffffffffffffffffffffffffffffff163373ffffffffffffffffffffffffffffffffffffffff161461066a576040517f08c379a0000000000000000000000000000000000000000000000000000000008152600401610661906114ae565b60405180910390fd5b6106748282610ebc565b5050565b600080610683610893565b905060006106918286610712565b9050838110156106d6576040517f08c379a00000000000000000000000000000000000000000000000000000000081526004016106cd90611540565b60405180910390fd5b6106e3828686840361089b565b60019250505092915050565b6000806106fa610893565b9050610707818585610af0565b600191505092915050565b6000600160008473ffffffffffffffffffffffffffffffffffffffff1673ffffffffffffffffffffffffffffffffffffffff16815260200190815260200160002060008373ffffffffffffffffffffffffffffffffffffffff1673ffffffffffffffffffffffffffffffffffffffff16815260200190815260200160002054905092915050565b600560009054906101000a900473ffffffffffffffffffffffffffffffffffffffff1673ffffffffffffffffffffffffffffffffffffffff163373ffffffffffffffffffffffffffffffffffffffff1614610829576040517f08c379a0000000000000000000000000000000000000000000000000000000008152600401610820906114ae565b60405180910390fd5b80600560006101000a81548173ffffffffffffffffffffffffffffffffffffffff021916908373ffffffffffffffffffffffffffffffffffffffff16021790555050565b600560009054906101000a900473ffffffffffffffffffffffffffffffffffffffff1681565b600033905090565b600073ffffffffffffffffffffffffffffffffffffffff168373ffffffffffffffffffffffffffffffffffffffff160361090a576040517f08c379a0000000000000000000000000000000000000000000000000000000008152600401610901906115d2565b60405180910390fd5b600073ffffffffffffffffffffffffffffffffffffffff168273ffffffffffffffffffffffffffffffffffffffff1603610979576040517f08c379a000000000000000000000000000000000000000000000000000000000815260040161097090611664565b60405180910390fd5b80600160008573ffffffffffffffffffffffffffffffffffffffff1673ffffffffffffffffffffffffffffffffffffffff16815260200190815260200160002060008473ffffffffffffffffffffffffffffffffffffffff1673ffffffffffffffffffffffffffffffffffffffff168152602001908152602001600020819055508173ffffffffffffffffffffffffffffffffffffffff168373ffffffffffffffffffffffffffffffffffffffff167f8c5be1e5ebec7d5bd14f71427d1e84f3dd0314c0f7b2291e5b200ac8c7c3b92583604051610a579190611263565b60405180910390a3505050565b6000610a708484610712565b90507fffffffffffffffffffffffffffffffffffffffffffffffffffffffffffffffff8114610aea5781811015610adc576040517f08c379a0000000000000000000000000000000000000000000000000000000008152600401610ad3906116d0565b60405180910390fd5b610ae9848484840361089b565b5b50505050565b600073ffffffffffffffffffffffffffffffffffffffff168373ffffffffffffffffffffffffffffffffffffffff1603610b5f576040517f08c379a0000000000000000000000000000000000000000000000000000000008152600401610b5690611762565b60405180910390fd5b600073ffffffffffffffffffffffffffffffffffffffff168273ffffffffffffffffffffffffffffffffffffffff1603610bce576040517f08c379a0000000000000000000000000000000000000000000000000000000008152600401610bc5906117f4565b60405180910390fd5b610bd9838383611089565b60008060008573ffffffffffffffffffffffffffffffffffffffff1673ffffffffffffffffffffffffffffffffffffffff16815260200190815260200160002054905081811015610c5f576040517f08c379a0000000000000000000000000000000000000000000000000000000008152600401610c5690611886565b60405180910390fd5b8181036000808673ffffffffffffffffffffffffffffffffffffffff1673ffffffffffffffffffffffffffffffffffffffff16815260200190815260200160002081905550816000808573ffffffffffffffffffffffffffffffffffffffff1673ffffffffffffffffffffffffffffffffffffffff168152602001908152602001600020600082825401925050819055508273ffffffffffffffffffffffffffffffffffffffff168473ffffffffffffffffffffffffffffffffffffffff167fddf252ad1be2c89b69c2b068fc378daa952ba7f163c4a11628f55a4df523b3ef84604051610d4d9190611263565b60405180910390a3610d6084848461108e565b50505050565b600073ffffffffffffffffffffffffffffffffffffffff168273ffffffffffffffffffffffffffffffffffffffff1603610dd5576040517f08c379a0000000000000000000000000000000000000000000000000000000008152600401610dcc906118f2565b60405180910390fd5b610de160008383611089565b8060026000828254610df3919061142e565b92505081905550806000808473ffffffffffffffffffffffffffffffffffffffff1673ffffffffffffffffffffffffffffffffffffffff168152602001908152602001600020600082825401925050819055508173ffffffffffffffffffffffffffffffffffffffff16600073ffffffffffffffffffffffffffffffffffffffff167fddf252ad1be2c89b69c2b068fc378daa952ba7f163c4a11628f55a4df523b3ef83604051610ea49190611263565b60405180910390a3610eb86000838361108e565b5050565b600073ffffffffffffffffffffffffffffffffffffffff168273ffffffffffffffffffffffffffffffffffffffff1603610f2b576040517f08c379a0000000000000000000000000000000000000000000000000000000008152600401610f2290611984565b60405180910390fd5b610f3782600083611089565b60008060008473ffffffffffffffffffffffffffffffffffffffff1673ffffffffffffffffffffffffffffffffffffffff16815260200190815260200160002054905081811015610fbd576040517f08c379a0000000000000000000000000000000000000000000000000000000008152600401610fb490611a16565b60405180910390fd5b8181036000808573ffffffffffffffffffffffffffffffffffffffff1673ffffffffffffffffffffffffffffffffffffffff1681526020019081526020016000208190555081600260008282540392505081905550600073ffffffffffffffffffffffffffffffffffffffff168373ffffffffffffffffffffffffffffffffffffffff167fddf252ad1be2c89b69c2b068fc378daa952ba7f163c4a11628f55a4df523b3ef846040516110709190611263565b60405180910390a36110848360008461108e565b505050565b505050565b505050565b600081519050919050565b600082825260208201905092915050565b60005b838110156110cd5780820151818401526020810190506110b2565b60008484015250505050565b6000601f19601f8301169050919050565b60006110f582611093565b6110ff818561109e565b935061110f8185602086016110af565b611118816110d9565b840191505092915050565b6000602082019050818103600083015261113d81846110ea565b905092915050565b600080fd5b600073ffffffffffffffffffffffffffffffffffffffff82169050919050565b60006111758261114a565b9050919050565b6111858161116a565b811461119057600080fd5b50565b6000813590506111a28161117c565b92915050565b6000819050919050565b6111bb816111a8565b81146111c657600080fd5b50565b6000813590506111d8816111b2565b92915050565b600080604083850312156111f5576111f4611145565b5b600061120385828601611193565b9250506020611214858286016111c9565b9150509250929050565b60008115159050919050565b6112338161121e565b82525050565b600060208201905061124e600083018461122a565b92915050565b61125d816111a8565b82525050565b60006020820190506112786000830184611254565b92915050565b60008060006060848603121561129757611296611145565b5b60006112a586828701611193565b93505060206112b686828701611193565b92505060406112c7868287016111c9565b9150509250925092565b600060ff82169050919050565b6112e7816112d1565b82525050565b600060208201905061130260008301846112de565b92915050565b60006020828403121561131e5761131d611145565b5b600061132c84828501611193565b91505092915050565b6000806040838503121561134c5761134b611145565b5b600061135a85828601611193565b925050602061136b85828601611193565b9150509250929050565b61137e8161116a565b82525050565b60006020820190506113996000830184611375565b92915050565b7f4e487b7100000000000000000000000000000000000000000000000000000000600052602260045260246000fd5b600060028204905060018216806113e657607f821691505b6020821081036113f9576113f861139f565b5b50919050565b7f4e487b7100000000000000000000000000000000000000000000000000000000600052601160045260246000fd5b6000611439826111a8565b9150611444836111a8565b925082820190508082111561145c5761145b6113ff565b5b92915050565b7f6f6e6c792061646d696e00000000000000000000000000000000000000000000600082015250565b6000611498600a8361109e565b91506114a382611462565b602082019050919050565b600060208201905081810360008301526114c78161148b565b9050919050565b7f45524332303a2064656372656173656420616c6c6f77616e63652062656c6f7760008201527f207a65726f000000000000000000000000000000000000000000000000000000602082015250565b600061152a60258361109e565b9150611535826114ce565b604082019050919050565b600060208201905081810360008301526115598161151d565b9050919050565b7f45524332303a20617070726f76652066726f6d20746865207a65726f2061646460008201527f7265737300000000000000000000000000000000000000000000000000000000602082015250565b60006115bc60248361109e565b91506115c782611560565b604082019050919050565b600060208201905081810360008301526115eb816115af565b9050919050565b7f45524332303a20617070726f766520746f20746865207a65726f20616464726560008201527f7373000000000000000000000000000000000000000000000000000000000000602082015250565b600061164e60228361109e565b9150611659826115f2565b604082019050919050565b6000602082019050818103600083015261167d81611641565b9050919050565b7f45524332303a20696e73756666696369656e7420616c6c6f77616e6365000000600082015250565b60006116ba601d8361109e565b91506116c582611684565b602082019050919050565b600060208201905081810360008301526116e9816116ad565b9050919050565b7f45524332303a207472616e736665722066726f6d20746865207a65726f20616460008201527f6472657373000000000000000000000000000000000000000000000000000000602082015250565b600061174c60258361109e565b9150611757826116f0565b604082019050919050565b6000602082019050818103600083015261177b8161173f565b9050919050565b7f45524332303a207472616e7366657220746f20746865207a65726f206164647260008201527f6573730000000000000000000000000000000000000000000000000000000000602082015250565b60006117de60238361109e565b91506117e982611782565b604082019050919050565b6000602082019050818103600083015261180d816117d1565b9050919050565b7f45524332303a207472616e7366657220616d6f756e742065786365656473206260008201527f616c616e63650000000000000000000000000000000000000000000000000000602082015250565b600061187060268361109e565b915061187b82611814565b604082019050919050565b6000602082019050818103600083015261189f81611863565b9050919050565b7f45524332303a206d696e7420746f20746865207a65726f206164647265737300600082015250565b60006118dc601f8361109e565b91506118e7826118a6565b602082019050919050565b6000602082019050818103600083015261190b816118cf565b9050919050565b7f45524332303a206275726e2066726f6d20746865207a65726f2061646472657360008201527f7300000000000000000000000000000000000000000000000000000000000000602082015250565b600061196e60218361109e565b915061197982611912565b604082019050919050565b6000602082019050818103600083015261199d81611961565b9050919050565b7f45524332303a206275726e20616d6f756e7420657863656564732062616c616e60008201527f6365000000000000000000000000000000000000000000000000000000000000602082015250565b6000611a0060228361109e565b9150611a0b826119a4565b604082019050919050565b60006020820190508181036000830152611a2f816119f3565b905091905056fea2646970667358221220bada7e195c28f78b888fa39e3ba0c2285312ad7a7a9afad559138d9e3001b4bb64736f6c63430008110033a26469706673582212200805e065a3ae0e8c69934568d84e128d374810571e02b5c133e875465a31bdbe64736f6c63430008110033",
  "linkReferences": {},
  "deployedLinkReferences": {}
}