{
  "_format": "hh-sol-artifact-1",
  "contractName": "TokenMarket",
  "sourceName": "contracts/TokenMarket.sol",
  "abi": [
    {
      "inputs": [],
      "stateMutability": "nonpayable",
      "type": "constructor"
    },
    {
      "inputs": [
        {
          "internalType": "string",
          "name": "name",
          "type": "string"
        },
        {
          "internalType": "string",
          "name": "symbol",
          "type": "string"
        }
      ],
      "name": "addToken",
      "outputs": [
        {
          "internalType": "address",
          "name": "",
          "type": "address"
        }
      ],
      "stateMutability": "nonpayable",
      "type": "function"
    },
    {
      "inputs": [],
      "name": "getTokens",
      "outputs": [
        {
          "components": [
            {
              "internalType": "string",
              "name": "name",
              "type": "string"
            },
            {
              "internalType": "address",
              "name": "addr",
              "type": "address"
            }
          ],
          "internalType": "struct TokenMarket.TokenNameAddr[]",
          "name": "",
          "type": "tuple[]"
        }
      ],
      "stateMutability": "view",
      "type": "function"
    },
    {
      "inputs": [],
      "name": "owner",
      "outputs": [
        {
          "internalType": "address",
          "name": "",
          "type": "address"
        }
      ],
      "stateMutability": "view",
      "type": "function"
    }
  ],
  "bytecode": "0x60a060405234801561001057600080fd5b503373ffffffffffffffffffffffffffffffffffffffff1660808173ffffffffffffffffffffffffffffffffffffffff1660601b8152505060805160601c612561610066600039600061026501526125616000f3fe60806040523480156200001157600080fd5b5060043610620000465760003560e01c80635192a8f7146200004b5780638da5cb5b1462000081578063aa6ca80814620000a3575b600080fd5b620000696004803603810190620000639190620005e7565b620000c5565b6040516200007891906200085f565b60405180910390f35b6200008b62000263565b6040516200009a91906200085f565b60405180910390f35b620000ad62000287565b604051620000bc91906200087c565b60405180910390f35b600080600184604051620000da919062000846565b908152602001604051809103902054146200012c576040517f08c379a00000000000000000000000000000000000000000000000000000000081526004016200012390620008db565b60405180910390fd5b600083836040516200013e906200047b565b6200014b929190620008a0565b604051809103906000f08015801562000168573d6000803e3d6000fd5b50905062000177600062000457565b60018560405162000189919062000846565b90815260200160405180910390208190555060405180604001604052808581526020018273ffffffffffffffffffffffffffffffffffffffff1681525060026000620001d6600062000457565b815260200190815260200160002060008201518160000190805190602001906200020292919062000489565b5060208201518160010160006101000a81548173ffffffffffffffffffffffffffffffffffffffff021916908373ffffffffffffffffffffffffffffffffffffffff16021790555090505062000259600062000465565b8091505092915050565b7f000000000000000000000000000000000000000000000000000000000000000081565b6060600062000297600062000457565b67ffffffffffffffff811115620002b357620002b262000b97565b5b604051908082528060200260200182016040528015620002f057816020015b620002dc6200051a565b815260200190600190039081620002d25790505b50905060005b62000302600062000457565b8110156200044f57600260008281526020019081526020016000206040518060400160405290816000820180546200033a9062000a50565b80601f0160208091040260200160405190810160405280929190818152602001828054620003689062000a50565b8015620003b95780601f106200038d57610100808354040283529160200191620003b9565b820191906000526020600020905b8154815290600101906020018083116200039b57829003601f168201915b505050505081526020016001820160009054906101000a900473ffffffffffffffffffffffffffffffffffffffff1673ffffffffffffffffffffffffffffffffffffffff1673ffffffffffffffffffffffffffffffffffffffff16815250508282815181106200042e576200042d62000b68565b5b60200260200101819052508080620004469062000abc565b915050620002f6565b508091505090565b600081600001549050919050565b6001816000016000828254019250508190555050565b6118f18062000c3b83390190565b828054620004979062000a50565b90600052602060002090601f016020900481019282620004bb576000855562000507565b82601f10620004d657805160ff191683800117855562000507565b8280016001018555821562000507579182015b8281111562000506578251825591602001919060010190620004e9565b5b5090506200051691906200054a565b5090565b604051806040016040528060608152602001600073ffffffffffffffffffffffffffffffffffffffff1681525090565b5b80821115620005655760008160009055506001016200054b565b5090565b6000620005806200057a8462000926565b620008fd565b9050828152602081018484840111156200059f576200059e62000bcb565b5b620005ac84828562000a0b565b509392505050565b600082601f830112620005cc57620005cb62000bc6565b5b8135620005de84826020860162000569565b91505092915050565b6000806040838503121562000601576200060062000bd5565b5b600083013567ffffffffffffffff81111562000622576200062162000bd0565b5b6200063085828601620005b4565b925050602083013567ffffffffffffffff81111562000654576200065362000bd0565b5b6200066285828601620005b4565b9150509250929050565b60006200067a838362000805565b905092915050565b6200068d81620009cd565b82525050565b6200069e81620009cd565b82525050565b6000620006b1826200096c565b620006bd81856200098f565b935083602082028501620006d1856200095c565b8060005b85811015620007135784840389528151620006f185826200066c565b9450620006fe8362000982565b925060208a01995050600181019050620006d5565b50829750879550505050505092915050565b6000620007328262000977565b6200073e8185620009a0565b93506200075081856020860162000a1a565b6200075b8162000bda565b840191505092915050565b6000620007738262000977565b6200077f8185620009b1565b93506200079181856020860162000a1a565b6200079c8162000bda565b840191505092915050565b6000620007b48262000977565b620007c08185620009c2565b9350620007d281856020860162000a1a565b80840191505092915050565b6000620007ed602783620009b1565b9150620007fa8262000beb565b604082019050919050565b6000604083016000830151848203600086015262000824828262000725565b91505060208301516200083b602086018262000682565b508091505092915050565b6000620008548284620007a7565b915081905092915050565b600060208201905062000876600083018462000693565b92915050565b60006020820190508181036000830152620008988184620006a4565b905092915050565b60006040820190508181036000830152620008bc818562000766565b90508181036020830152620008d2818462000766565b90509392505050565b60006020820190508181036000830152620008f681620007de565b9050919050565b6000620009096200091c565b905062000917828262000a86565b919050565b6000604051905090565b600067ffffffffffffffff82111562000944576200094362000b97565b5b6200094f8262000bda565b9050602081019050919050565b6000819050602082019050919050565b600081519050919050565b600081519050919050565b6000602082019050919050565b600082825260208201905092915050565b600082825260208201905092915050565b600082825260208201905092915050565b600081905092915050565b6000620009da82620009e1565b9050919050565b600073ffffffffffffffffffffffffffffffffffffffff82169050919050565b6000819050919050565b82818337600083830152505050565b60005b8381101562000a3a57808201518184015260208101905062000a1d565b8381111562000a4a576000848401525b50505050565b6000600282049050600182168062000a6957607f821691505b6020821081141562000a805762000a7f62000b39565b5b50919050565b62000a918262000bda565b810181811067ffffffffffffffff8211171562000ab35762000ab262000b97565b5b80604052505050565b600062000ac98262000a01565b91507fffffffffffffffffffffffffffffffffffffffffffffffffffffffffffffffff82141562000aff5762000afe62000b0a565b5b600182019050919050565b7f4e487b7100000000000000000000000000000000000000000000000000000000600052601160045260246000fd5b7f4e487b7100000000000000000000000000000000000000000000000000000000600052602260045260246000fd5b7f4e487b7100000000000000000000000000000000000000000000000000000000600052603260045260246000fd5b7f4e487b7100000000000000000000000000000000000000000000000000000000600052604160045260246000fd5b600080fd5b600080fd5b600080fd5b600080fd5b6000601f19601f8301169050919050565b7f546f6b656e2077697468207468652073616d65206e616d6520616c726561647960008201527f206578697374730000000000000000000000000000000000000000000000000060208201525056fe60806040523480156200001157600080fd5b50604051620018f1380380620018f1833981810160405281019062000037919062000332565b818181600390805190602001906200005192919062000204565b5080600490805190602001906200006a92919062000204565b50505062000084336402540be4006200008c60201b60201c565b505062000682565b600073ffffffffffffffffffffffffffffffffffffffff168273ffffffffffffffffffffffffffffffffffffffff161415620000ff576040517f08c379a0000000000000000000000000000000000000000000000000000000008152600401620000f690620003ef565b60405180910390fd5b6200011360008383620001fa60201b60201c565b80600260008282546200012791906200049e565b92505081905550806000808473ffffffffffffffffffffffffffffffffffffffff1673ffffffffffffffffffffffffffffffffffffffff168152602001908152602001600020600082825401925050819055508173ffffffffffffffffffffffffffffffffffffffff16600073ffffffffffffffffffffffffffffffffffffffff167fddf252ad1be2c89b69c2b068fc378daa952ba7f163c4a11628f55a4df523b3ef83604051620001da919062000411565b60405180910390a3620001f660008383620001ff60201b60201c565b5050565b505050565b505050565b82805462000212906200053b565b90600052602060002090601f01602090048101928262000236576000855562000282565b82601f106200025157805160ff191683800117855562000282565b8280016001018555821562000282579182015b828111156200028157825182559160200191906001019062000264565b5b50905062000291919062000295565b5090565b5b80821115620002b057600081600090555060010162000296565b5090565b6000620002cb620002c58462000457565b6200042e565b905082815260208101848484011115620002ea57620002e962000639565b5b620002f784828562000505565b509392505050565b600082601f83011262000317576200031662000634565b5b815162000329848260208601620002b4565b91505092915050565b600080604083850312156200034c576200034b62000643565b5b600083015167ffffffffffffffff8111156200036d576200036c6200063e565b5b6200037b85828601620002ff565b925050602083015167ffffffffffffffff8111156200039f576200039e6200063e565b5b620003ad85828601620002ff565b9150509250929050565b6000620003c6601f836200048d565b9150620003d38262000659565b602082019050919050565b620003e981620004fb565b82525050565b600060208201905081810360008301526200040a81620003b7565b9050919050565b6000602082019050620004286000830184620003de565b92915050565b60006200043a6200044d565b905062000448828262000571565b919050565b6000604051905090565b600067ffffffffffffffff82111562000475576200047462000605565b5b620004808262000648565b9050602081019050919050565b600082825260208201905092915050565b6000620004ab82620004fb565b9150620004b883620004fb565b9250827fffffffffffffffffffffffffffffffffffffffffffffffffffffffffffffffff03821115620004f057620004ef620005a7565b5b828201905092915050565b6000819050919050565b60005b838110156200052557808201518184015260208101905062000508565b8381111562000535576000848401525b50505050565b600060028204905060018216806200055457607f821691505b602082108114156200056b576200056a620005d6565b5b50919050565b6200057c8262000648565b810181811067ffffffffffffffff821117156200059e576200059d62000605565b5b80604052505050565b7f4e487b7100000000000000000000000000000000000000000000000000000000600052601160045260246000fd5b7f4e487b7100000000000000000000000000000000000000000000000000000000600052602260045260246000fd5b7f4e487b7100000000000000000000000000000000000000000000000000000000600052604160045260246000fd5b600080fd5b600080fd5b600080fd5b600080fd5b6000601f19601f8301169050919050565b7f45524332303a206d696e7420746f20746865207a65726f206164647265737300600082015250565b61125f80620006926000396000f3fe608060405234801561001057600080fd5b50600436106100a95760003560e01c80633950935111610071578063395093511461016857806370a082311461019857806395d89b41146101c8578063a457c2d7146101e6578063a9059cbb14610216578063dd62ed3e14610246576100a9565b806306fdde03146100ae578063095ea7b3146100cc57806318160ddd146100fc57806323b872dd1461011a578063313ce5671461014a575b600080fd5b6100b6610276565b6040516100c39190610d20565b60405180910390f35b6100e660048036038101906100e19190610b6a565b610308565b6040516100f39190610d05565b60405180910390f35b61010461032b565b6040516101119190610e22565b60405180910390f35b610134600480360381019061012f9190610b17565b610335565b6040516101419190610d05565b60405180910390f35b610152610364565b60405161015f9190610e3d565b60405180910390f35b610182600480360381019061017d9190610b6a565b61036d565b60405161018f9190610d05565b60405180910390f35b6101b260048036038101906101ad9190610aaa565b6103a4565b6040516101bf9190610e22565b60405180910390f35b6101d06103ec565b6040516101dd9190610d20565b60405180910390f35b61020060048036038101906101fb9190610b6a565b61047e565b60405161020d9190610d05565b60405180910390f35b610230600480360381019061022b9190610b6a565b6104f5565b60405161023d9190610d05565b60405180910390f35b610260600480360381019061025b9190610ad7565b610518565b60405161026d9190610e22565b60405180910390f35b60606003805461028590610f52565b80601f01602080910402602001604051908101604052809291908181526020018280546102b190610f52565b80156102fe5780601f106102d3576101008083540402835291602001916102fe565b820191906000526020600020905b8154815290600101906020018083116102e157829003601f168201915b5050505050905090565b60008061031361059f565b90506103208185856105a7565b600191505092915050565b6000600254905090565b60008061034061059f565b905061034d858285610772565b6103588585856107fe565b60019150509392505050565b60006012905090565b60008061037861059f565b905061039981858561038a8589610518565b6103949190610e74565b6105a7565b600191505092915050565b60008060008373ffffffffffffffffffffffffffffffffffffffff1673ffffffffffffffffffffffffffffffffffffffff168152602001908152602001600020549050919050565b6060600480546103fb90610f52565b80601f016020809104026020016040519081016040528092919081815260200182805461042790610f52565b80156104745780601f1061044957610100808354040283529160200191610474565b820191906000526020600020905b81548152906001019060200180831161045757829003601f168201915b5050505050905090565b60008061048961059f565b905060006104978286610518565b9050838110156104dc576040517f08c379a00000000000000000000000000000000000000000000000000000000081526004016104d390610e02565b60405180910390fd5b6104e982868684036105a7565b60019250505092915050565b60008061050061059f565b905061050d8185856107fe565b600191505092915050565b6000600160008473ffffffffffffffffffffffffffffffffffffffff1673ffffffffffffffffffffffffffffffffffffffff16815260200190815260200160002060008373ffffffffffffffffffffffffffffffffffffffff1673ffffffffffffffffffffffffffffffffffffffff16815260200190815260200160002054905092915050565b600033905090565b600073ffffffffffffffffffffffffffffffffffffffff168373ffffffffffffffffffffffffffffffffffffffff161415610617576040517f08c379a000000000000000000000000000000000000000000000000000000000815260040161060e90610de2565b60405180910390fd5b600073ffffffffffffffffffffffffffffffffffffffff168273ffffffffffffffffffffffffffffffffffffffff161415610687576040517f08c379a000000000000000000000000000000000000000000000000000000000815260040161067e90610d62565b60405180910390fd5b80600160008573ffffffffffffffffffffffffffffffffffffffff1673ffffffffffffffffffffffffffffffffffffffff16815260200190815260200160002060008473ffffffffffffffffffffffffffffffffffffffff1673ffffffffffffffffffffffffffffffffffffffff168152602001908152602001600020819055508173ffffffffffffffffffffffffffffffffffffffff168373ffffffffffffffffffffffffffffffffffffffff167f8c5be1e5ebec7d5bd14f71427d1e84f3dd0314c0f7b2291e5b200ac8c7c3b925836040516107659190610e22565b60405180910390a3505050565b600061077e8484610518565b90507fffffffffffffffffffffffffffffffffffffffffffffffffffffffffffffffff81146107f857818110156107ea576040517f08c379a00000000000000000000000000000000000000000000000000000000081526004016107e190610d82565b60405180910390fd5b6107f784848484036105a7565b5b50505050565b600073ffffffffffffffffffffffffffffffffffffffff168373ffffffffffffffffffffffffffffffffffffffff16141561086e576040517f08c379a000000000000000000000000000000000000000000000000000000000815260040161086590610dc2565b60405180910390fd5b600073ffffffffffffffffffffffffffffffffffffffff168273ffffffffffffffffffffffffffffffffffffffff1614156108de576040517f08c379a00000000000000000000000000000000000000000000000000000000081526004016108d590610d42565b60405180910390fd5b6108e9838383610a76565b60008060008573ffffffffffffffffffffffffffffffffffffffff1673ffffffffffffffffffffffffffffffffffffffff1681526020019081526020016000205490508181101561096f576040517f08c379a000000000000000000000000000000000000000000000000000000000815260040161096690610da2565b60405180910390fd5b8181036000808673ffffffffffffffffffffffffffffffffffffffff1673ffffffffffffffffffffffffffffffffffffffff16815260200190815260200160002081905550816000808573ffffffffffffffffffffffffffffffffffffffff1673ffffffffffffffffffffffffffffffffffffffff168152602001908152602001600020600082825401925050819055508273ffffffffffffffffffffffffffffffffffffffff168473ffffffffffffffffffffffffffffffffffffffff167fddf252ad1be2c89b69c2b068fc378daa952ba7f163c4a11628f55a4df523b3ef84604051610a5d9190610e22565b60405180910390a3610a70848484610a7b565b50505050565b505050565b505050565b600081359050610a8f816111fb565b92915050565b600081359050610aa481611212565b92915050565b600060208284031215610ac057610abf610fe2565b5b6000610ace84828501610a80565b91505092915050565b60008060408385031215610aee57610aed610fe2565b5b6000610afc85828601610a80565b9250506020610b0d85828601610a80565b9150509250929050565b600080600060608486031215610b3057610b2f610fe2565b5b6000610b3e86828701610a80565b9350506020610b4f86828701610a80565b9250506040610b6086828701610a95565b9150509250925092565b60008060408385031215610b8157610b80610fe2565b5b6000610b8f85828601610a80565b9250506020610ba085828601610a95565b9150509250929050565b610bb381610edc565b82525050565b6000610bc482610e58565b610bce8185610e63565b9350610bde818560208601610f1f565b610be781610fe7565b840191505092915050565b6000610bff602383610e63565b9150610c0a82610ff8565b604082019050919050565b6000610c22602283610e63565b9150610c2d82611047565b604082019050919050565b6000610c45601d83610e63565b9150610c5082611096565b602082019050919050565b6000610c68602683610e63565b9150610c73826110bf565b604082019050919050565b6000610c8b602583610e63565b9150610c968261110e565b604082019050919050565b6000610cae602483610e63565b9150610cb98261115d565b604082019050919050565b6000610cd1602583610e63565b9150610cdc826111ac565b604082019050919050565b610cf081610f08565b82525050565b610cff81610f12565b82525050565b6000602082019050610d1a6000830184610baa565b92915050565b60006020820190508181036000830152610d3a8184610bb9565b905092915050565b60006020820190508181036000830152610d5b81610bf2565b9050919050565b60006020820190508181036000830152610d7b81610c15565b9050919050565b60006020820190508181036000830152610d9b81610c38565b9050919050565b60006020820190508181036000830152610dbb81610c5b565b9050919050565b60006020820190508181036000830152610ddb81610c7e565b9050919050565b60006020820190508181036000830152610dfb81610ca1565b9050919050565b60006020820190508181036000830152610e1b81610cc4565b9050919050565b6000602082019050610e376000830184610ce7565b92915050565b6000602082019050610e526000830184610cf6565b92915050565b600081519050919050565b600082825260208201905092915050565b6000610e7f82610f08565b9150610e8a83610f08565b9250827fffffffffffffffffffffffffffffffffffffffffffffffffffffffffffffffff03821115610ebf57610ebe610f84565b5b828201905092915050565b6000610ed582610ee8565b9050919050565b60008115159050919050565b600073ffffffffffffffffffffffffffffffffffffffff82169050919050565b6000819050919050565b600060ff82169050919050565b60005b83811015610f3d578082015181840152602081019050610f22565b83811115610f4c576000848401525b50505050565b60006002820490506001821680610f6a57607f821691505b60208210811415610f7e57610f7d610fb3565b5b50919050565b7f4e487b7100000000000000000000000000000000000000000000000000000000600052601160045260246000fd5b7f4e487b7100000000000000000000000000000000000000000000000000000000600052602260045260246000fd5b600080fd5b6000601f19601f8301169050919050565b7f45524332303a207472616e7366657220746f20746865207a65726f206164647260008201527f6573730000000000000000000000000000000000000000000000000000000000602082015250565b7f45524332303a20617070726f766520746f20746865207a65726f20616464726560008201527f7373000000000000000000000000000000000000000000000000000000000000602082015250565b7f45524332303a20696e73756666696369656e7420616c6c6f77616e6365000000600082015250565b7f45524332303a207472616e7366657220616d6f756e742065786365656473206260008201527f616c616e63650000000000000000000000000000000000000000000000000000602082015250565b7f45524332303a207472616e736665722066726f6d20746865207a65726f20616460008201527f6472657373000000000000000000000000000000000000000000000000000000602082015250565b7f45524332303a20617070726f76652066726f6d20746865207a65726f2061646460008201527f7265737300000000000000000000000000000000000000000000000000000000602082015250565b7f45524332303a2064656372656173656420616c6c6f77616e63652062656c6f7760008201527f207a65726f000000000000000000000000000000000000000000000000000000602082015250565b61120481610eca565b811461120f57600080fd5b50565b61121b81610f08565b811461122657600080fd5b5056fea2646970667358221220a0c9aa5595a756c6e8d82fb1909b5051b4301649725b7fe3e6e86797075031d464736f6c63430008070033a26469706673582212200af4b0ca67b0befa980e8471eda6e51aa669e99dc41a0e1be8d40aab0f21f3d564736f6c63430008070033",
  "linkReferences": {},
  "deployedLinkReferences": {}
}